{
  "contractName": "FlashLoan",
  "abi": [
    {
      "inputs": [
        {
          "internalType": "address",
          "name": "_kyber",
          "type": "address"
        },
        {
          "internalType": "address",
          "name": "_uniswap",
          "type": "address"
        },
        {
          "internalType": "address",
          "name": "_weth",
          "type": "address"
        },
        {
          "internalType": "address",
          "name": "_usdc",
          "type": "address"
        },
        {
          "internalType": "address",
          "name": "_beneficiary",
          "type": "address"
        }
      ],
      "payable": false,
      "stateMutability": "nonpayable",
      "type": "constructor"
    },
    {
      "anonymous": false,
      "inputs": [
        {
          "indexed": false,
          "internalType": "enum FlashLoan.Direction",
          "name": "direction",
          "type": "uint8"
        },
        {
          "indexed": false,
          "internalType": "uint256",
          "name": "profit",
          "type": "uint256"
        },
        {
          "indexed": false,
          "internalType": "uint256",
          "name": "date",
          "type": "uint256"
        }
      ],
      "name": "NewArbitrage",
      "type": "event"
    },
    {
      "payable": true,
      "stateMutability": "payable",
      "type": "fallback"
    },
    {
      "constant": false,
      "inputs": [
        {
          "internalType": "address",
          "name": "sender",
          "type": "address"
        },
        {
          "components": [
            {
              "internalType": "address",
              "name": "owner",
              "type": "address"
            },
            {
              "internalType": "uint256",
              "name": "number",
              "type": "uint256"
            }
          ],
          "internalType": "struct Account.Info",
          "name": "account",
          "type": "tuple"
        },
        {
          "internalType": "bytes",
          "name": "data",
          "type": "bytes"
        }
      ],
      "name": "callFunction",
      "outputs": [],
      "payable": false,
      "stateMutability": "nonpayable",
      "type": "function"
    },
    {
      "constant": false,
      "inputs": [
        {
          "internalType": "address",
          "name": "_solo",
          "type": "address"
        },
        {
          "internalType": "address",
          "name": "_token",
          "type": "address"
        },
        {
          "internalType": "uint256",
          "name": "_amount",
          "type": "uint256"
        },
        {
          "internalType": "enum FlashLoan.Direction",
          "name": "direction",
          "type": "uint8"
        }
      ],
      "name": "initiateFlashloan",
      "outputs": [],
      "payable": false,
      "stateMutability": "nonpayable",
      "type": "function"
    }
  ],
  "bytecode": "0x60806040523480156200001157600080fd5b50604051620028883803806200288883398181016040526200003791908101906200019d565b846000806101000a81548173ffffffffffffffffffffffffffffffffffffffff021916908373ffffffffffffffffffffffffffffffffffffffff16021790555083600160006101000a81548173ffffffffffffffffffffffffffffffffffffffff021916908373ffffffffffffffffffffffffffffffffffffffff16021790555082600260006101000a81548173ffffffffffffffffffffffffffffffffffffffff021916908373ffffffffffffffffffffffffffffffffffffffff16021790555081600360006101000a81548173ffffffffffffffffffffffffffffffffffffffff021916908373ffffffffffffffffffffffffffffffffffffffff16021790555080600460006101000a81548173ffffffffffffffffffffffffffffffffffffffff021916908373ffffffffffffffffffffffffffffffffffffffff16021790555050505050506200026d565b600081519050620001978162000253565b92915050565b600080600080600060a08688031215620001b657600080fd5b6000620001c68882890162000186565b9550506020620001d98882890162000186565b9450506040620001ec8882890162000186565b9350506060620001ff8882890162000186565b9250506080620002128882890162000186565b9150509295509295909350565b60006200022c8262000233565b9050919050565b600073ffffffffffffffffffffffffffffffffffffffff82169050919050565b6200025e816200021f565b81146200026a57600080fd5b50565b61260b806200027d6000396000f3fe6080604052600436106100295760003560e01c80638b4187131461002b578063c013147614610054575b005b34801561003757600080fd5b50610052600480360361004d919081019061199b565b61007d565b005b34801561006057600080fd5b5061007b60048036036100769190810190611938565b610e8e565b005b610085611570565b818060200190516100999190810190611a6c565b90506000600360009054906101000a900473ffffffffffffffffffffffffffffffffffffffff1673ffffffffffffffffffffffffffffffffffffffff166370a08231306040518263ffffffff1660e01b81526004016100f89190611fa8565b60206040518083038186803b15801561011057600080fd5b505afa158015610124573d6000803e3d6000fd5b505050506040513d601f19601f820116820180604052506101489190810190611a95565b90506000600181111561015757fe5b8260000151600181111561016757fe5b141561068e57600360009054906101000a900473ffffffffffffffffffffffffffffffffffffffff1673ffffffffffffffffffffffffffffffffffffffff1663095ea7b36000809054906101000a900473ffffffffffffffffffffffffffffffffffffffff16836040518363ffffffff1660e01b81526004016101eb929190611fc3565b602060405180830381600087803b15801561020557600080fd5b505af1158015610219573d6000803e3d6000fd5b505050506040513d601f19601f8201168201806040525061023d9190810190611a43565b5060008060009054906101000a900473ffffffffffffffffffffffffffffffffffffffff1673ffffffffffffffffffffffffffffffffffffffff1663809a9e55600360009054906101000a900473ffffffffffffffffffffffffffffffffffffffff1673eeeeeeeeeeeeeeeeeeeeeeeeeeeeeeeeeeeeeeee856040518463ffffffff1660e01b81526004016102d493929190612023565b604080518083038186803b1580156102eb57600080fd5b505afa1580156102ff573d6000803e3d6000fd5b505050506040513d601f19601f820116820180604052506103239190810190611abe565b5090506000809054906101000a900473ffffffffffffffffffffffffffffffffffffffff1673ffffffffffffffffffffffffffffffffffffffff16633bba21dc600360009054906101000a900473ffffffffffffffffffffffffffffffffffffffff1684846040518463ffffffff1660e01b81526004016103a693929190612083565b602060405180830381600087803b1580156103c057600080fd5b505af11580156103d4573d6000803e3d6000fd5b505050506040513d601f19601f820116820180604052506103f89190810190611a95565b506060600260405190808252806020026020018201604052801561042b5781602001602082028038833980820191505090505b509050600260009054906101000a900473ffffffffffffffffffffffffffffffffffffffff168160008151811061045e57fe5b602002602001019073ffffffffffffffffffffffffffffffffffffffff16908173ffffffffffffffffffffffffffffffffffffffff1681525050600360009054906101000a900473ffffffffffffffffffffffffffffffffffffffff16816001815181106104c857fe5b602002602001019073ffffffffffffffffffffffffffffffffffffffff16908173ffffffffffffffffffffffffffffffffffffffff16815250506060600160009054906101000a900473ffffffffffffffffffffffffffffffffffffffff1673ffffffffffffffffffffffffffffffffffffffff1663d06ca61f47846040518363ffffffff1660e01b8152600401610561929190612187565b60006040518083038186803b15801561057957600080fd5b505afa15801561058d573d6000803e3d6000fd5b505050506040513d6000823e3d601f19601f820116820180604052506105b69190810190611a02565b9050600160009054906101000a900473ffffffffffffffffffffffffffffffffffffffff1673ffffffffffffffffffffffffffffffffffffffff16637ff36ab5478360018151811061060457fe5b60200260200101518530426040518663ffffffff1660e01b815260040161062e94939291906121b7565b6000604051808303818588803b15801561064757600080fd5b505af115801561065b573d6000803e3d6000fd5b50505050506040513d6000823e3d601f19601f820116820180604052506106859190810190611a02565b50505050610bcf565b60018081111561069a57fe5b826000015160018111156106aa57fe5b1415610bce57600360009054906101000a900473ffffffffffffffffffffffffffffffffffffffff1673ffffffffffffffffffffffffffffffffffffffff1663095ea7b3600160009054906101000a900473ffffffffffffffffffffffffffffffffffffffff16836040518363ffffffff1660e01b815260040161072f929190611fc3565b602060405180830381600087803b15801561074957600080fd5b505af115801561075d573d6000803e3d6000fd5b505050506040513d601f19601f820116820180604052506107819190810190611a43565b50606060026040519080825280602002602001820160405280156107b45781602001602082028038833980820191505090505b509050600360009054906101000a900473ffffffffffffffffffffffffffffffffffffffff16816000815181106107e757fe5b602002602001019073ffffffffffffffffffffffffffffffffffffffff16908173ffffffffffffffffffffffffffffffffffffffff1681525050600260009054906101000a900473ffffffffffffffffffffffffffffffffffffffff168160018151811061085157fe5b602002602001019073ffffffffffffffffffffffffffffffffffffffff16908173ffffffffffffffffffffffffffffffffffffffff16815250506060600160009054906101000a900473ffffffffffffffffffffffffffffffffffffffff1673ffffffffffffffffffffffffffffffffffffffff1663d06ca61f84846040518363ffffffff1660e01b81526004016108ea929190612187565b60006040518083038186803b15801561090257600080fd5b505afa158015610916573d6000803e3d6000fd5b505050506040513d6000823e3d601f19601f8201168201806040525061093f9190810190611a02565b9050600160009054906101000a900473ffffffffffffffffffffffffffffffffffffffff1673ffffffffffffffffffffffffffffffffffffffff166318cbafe5848360018151811061098d57fe5b60200260200101518530426040518663ffffffff1660e01b81526004016109b8959493929190612203565b600060405180830381600087803b1580156109d257600080fd5b505af11580156109e6573d6000803e3d6000fd5b505050506040513d6000823e3d601f19601f82011682018060405250610a0f9190810190611a02565b5060008060009054906101000a900473ffffffffffffffffffffffffffffffffffffffff1673ffffffffffffffffffffffffffffffffffffffff1663809a9e5573eeeeeeeeeeeeeeeeeeeeeeeeeeeeeeeeeeeeeeee600360009054906101000a900473ffffffffffffffffffffffffffffffffffffffff16476040518463ffffffff1660e01b8152600401610aa693929190612023565b604080518083038186803b158015610abd57600080fd5b505afa158015610ad1573d6000803e3d6000fd5b505050506040513d601f19601f82011682018060405250610af59190810190611abe565b5090506000809054906101000a900473ffffffffffffffffffffffffffffffffffffffff1673ffffffffffffffffffffffffffffffffffffffff16637a2a045647600360009054906101000a900473ffffffffffffffffffffffffffffffffffffffff16846040518463ffffffff1660e01b8152600401610b7792919061205a565b6020604051808303818588803b158015610b9057600080fd5b505af1158015610ba4573d6000803e3d6000fd5b50505050506040513d601f19601f82011682018060405250610bc99190810190611a95565b505050505b5b8160200151600360009054906101000a900473ffffffffffffffffffffffffffffffffffffffff1673ffffffffffffffffffffffffffffffffffffffff166370a08231306040518263ffffffff1660e01b8152600401610c2f9190611fa8565b60206040518083038186803b158015610c4757600080fd5b505afa158015610c5b573d6000803e3d6000fd5b505050506040513d601f19601f82011682018060405250610c7f9190810190611a95565b1015610cc0576040517f08c379a0000000000000000000000000000000000000000000000000000000008152600401610cb790612131565b60405180910390fd5b60008260200151600360009054906101000a900473ffffffffffffffffffffffffffffffffffffffff1673ffffffffffffffffffffffffffffffffffffffff166370a08231306040518263ffffffff1660e01b8152600401610d229190611fa8565b60206040518083038186803b158015610d3a57600080fd5b505afa158015610d4e573d6000803e3d6000fd5b505050506040513d601f19601f82011682018060405250610d729190810190611a95565b039050600360009054906101000a900473ffffffffffffffffffffffffffffffffffffffff1673ffffffffffffffffffffffffffffffffffffffff1663a9059cbb600460009054906101000a900473ffffffffffffffffffffffffffffffffffffffff16836040518363ffffffff1660e01b8152600401610df4929190611fc3565b602060405180830381600087803b158015610e0e57600080fd5b505af1158015610e22573d6000803e3d6000fd5b505050506040513d601f19601f82011682018060405250610e469190810190611a43565b507fa89b78c8d1240154beaf4b865d2d7cb794ac0f358c618aef3de102cf4a4ee42d83600001518242604051610e7e939291906120ba565b60405180910390a1505050505050565b60008490506000610e9f86866110f7565b90506000610eac856112a9565b90508573ffffffffffffffffffffffffffffffffffffffff1663095ea7b388836040518363ffffffff1660e01b8152600401610ee9929190611fc3565b602060405180830381600087803b158015610f0357600080fd5b505af1158015610f17573d6000803e3d6000fd5b505050506040513d601f19601f82011682018060405250610f3b9190810190611a43565b5060606003604051908082528060200260200182016040528015610f7957816020015b610f66611595565b815260200190600190039081610f5e5790505b509050610f8683876112c6565b81600081518110610f9357fe5b6020026020010181905250610fe56040518060400160405280876001811115610fb857fe5b815260200184815250604051602001610fd19190612151565b60405160208183030381529060405261137f565b81600181518110610ff257fe5b60200260200101819052506110078383611429565b8160028151811061101457fe5b60200260200101819052506060600160405190808252806020026020018201604052801561105c57816020015b611049611601565b8152602001906001900390816110415790505b5090506110676114e2565b8160008151811061107457fe5b60200260200101819052508473ffffffffffffffffffffffffffffffffffffffff1663a67a6a4582846040518363ffffffff1660e01b81526004016110ba929190611fec565b600060405180830381600087803b1580156110d457600080fd5b505af11580156110e8573d6000803e3d6000fd5b50505050505050505050505050565b60008083905060008173ffffffffffffffffffffffffffffffffffffffff1663295c39a56040518163ffffffff1660e01b815260040160206040518083038186803b15801561114557600080fd5b505afa158015611159573d6000803e3d6000fd5b505050506040513d601f19601f8201168201806040525061117d9190810190611a95565b9050600080600090505b82811015611267578373ffffffffffffffffffffffffffffffffffffffff1663062bd3e9826040518263ffffffff1660e01b81526004016111c8919061216c565b60206040518083038186803b1580156111e057600080fd5b505afa1580156111f4573d6000803e3d6000fd5b505050506040513d601f19601f82011682018060405250611218919081019061190f565b91508573ffffffffffffffffffffffffffffffffffffffff168273ffffffffffffffffffffffffffffffffffffffff16141561125a57809450505050506112a3565b8080600101915050611187565b506040517f08c379a000000000000000000000000000000000000000000000000000000000815260040161129a90612111565b60405180910390fd5b92915050565b60006112bf60028361151b90919063ffffffff16565b9050919050565b6112ce611631565b604051806101000160405280600160088111156112e757fe5b81526020016000815260200160405180608001604052806000151581526020016000600181111561131457fe5b81526020016000600181111561132657fe5b8152602001858152508152602001848152602001600081526020013073ffffffffffffffffffffffffffffffffffffffff1681526020016000815260200160405180602001604052806000815250815250905092915050565b611387611631565b60405180610100016040528060088081111561139f57fe5b8152602001600081526020016040518060800160405280600015158152602001600060018111156113cc57fe5b8152602001600060018111156113de57fe5b81526020016000815250815260200160008152602001600081526020013073ffffffffffffffffffffffffffffffffffffffff16815260200160008152602001838152509050919050565b611431611631565b6040518061010001604052806000600881111561144a57fe5b81526020016000815260200160405180608001604052806001151581526020016000600181111561147757fe5b81526020016000600181111561148957fe5b8152602001858152508152602001848152602001600081526020013073ffffffffffffffffffffffffffffffffffffffff1681526020016000815260200160405180602001604052806000815250815250905092915050565b6114ea61169d565b60405180604001604052803073ffffffffffffffffffffffffffffffffffffffff1681526020016001815250905090565b600080828401905083811015611566576040517f08c379a000000000000000000000000000000000000000000000000000000000815260040161155d906120f1565b60405180910390fd5b8091505092915050565b60405180604001604052806000600181111561158857fe5b8152602001600081525090565b604051806101000160405280600060088111156115ae57fe5b8152602001600081526020016115c26116cd565b81526020016000815260200160008152602001600073ffffffffffffffffffffffffffffffffffffffff16815260200160008152602001606081525090565b6040518060400160405280600073ffffffffffffffffffffffffffffffffffffffff168152602001600081525090565b6040518061010001604052806000600881111561164a57fe5b81526020016000815260200161165e6116cd565b81526020016000815260200160008152602001600073ffffffffffffffffffffffffffffffffffffffff16815260200160008152602001606081525090565b6040518060400160405280600073ffffffffffffffffffffffffffffffffffffffff168152602001600081525090565b6040518060800160405280600015158152602001600060018111156116ee57fe5b81526020016000600181111561170057fe5b8152602001600081525090565b60008135905061171c81612573565b92915050565b60008151905061173181612573565b92915050565b600082601f83011261174857600080fd5b815161175b6117568261228a565b61225d565b9150818183526020840193506020810190508385602084028201111561178057600080fd5b60005b838110156117b0578161179688826118fa565b845260208401935060208301925050600181019050611783565b5050505092915050565b6000815190506117c98161258a565b92915050565b600082601f8301126117e057600080fd5b81356117f36117ee826122b2565b61225d565b9150808252602083016020830185838301111561180f57600080fd5b61181a8382846124ec565b50505092915050565b600081359050611832816125a1565b92915050565b600081519050611847816125a1565b92915050565b60006040828403121561185f57600080fd5b611869604061225d565b9050600061187984828501611838565b600083015250602061188d848285016118fa565b60208301525092915050565b6000604082840312156118ab57600080fd5b6118b5604061225d565b905060006118c58482850161170d565b60008301525060206118d9848285016118e5565b60208301525092915050565b6000813590506118f4816125b1565b92915050565b600081519050611909816125b1565b92915050565b60006020828403121561192157600080fd5b600061192f84828501611722565b91505092915050565b6000806000806080858703121561194e57600080fd5b600061195c8782880161170d565b945050602061196d8782880161170d565b935050604061197e878288016118e5565b925050606061198f87828801611823565b91505092959194509250565b6000806000608084860312156119b057600080fd5b60006119be8682870161170d565b93505060206119cf86828701611899565b925050606084013567ffffffffffffffff8111156119ec57600080fd5b6119f8868287016117cf565b9150509250925092565b600060208284031215611a1457600080fd5b600082015167ffffffffffffffff811115611a2e57600080fd5b611a3a84828501611737565b91505092915050565b600060208284031215611a5557600080fd5b6000611a63848285016117ba565b91505092915050565b600060408284031215611a7e57600080fd5b6000611a8c8482850161184d565b91505092915050565b600060208284031215611aa757600080fd5b6000611ab5848285016118fa565b91505092915050565b60008060408385031215611ad157600080fd5b6000611adf858286016118fa565b9250506020611af0858286016118fa565b9150509250929050565b6000611b068383611b4d565b60208301905092915050565b6000611b1e8383611e24565b905092915050565b6000611b328383611f5b565b60408301905092915050565b611b478161244a565b82525050565b611b56816123b6565b82525050565b611b65816123b6565b82525050565b6000611b768261230e565b611b808185612361565b9350611b8b836122de565b8060005b83811015611bbc578151611ba38882611afa565b9750611bae8361233a565b925050600181019050611b8f565b5085935050505092915050565b6000611bd482612319565b611bde8185612372565b935083602082028501611bf0856122ee565b8060005b85811015611c2c5784840389528151611c0d8582611b12565b9450611c1883612347565b925060208a01995050600181019050611bf4565b50829750879550505050505092915050565b6000611c4982612324565b611c538185612383565b9350611c5e836122fe565b8060005b83811015611c8f578151611c768882611b26565b9750611c8183612354565b925050600181019050611c62565b5085935050505092915050565b611ca5816123c8565b82525050565b6000611cb68261232f565b611cc08185612394565b9350611cd08185602086016124fb565b611cd98161252e565b840191505092915050565b611ced8161245c565b82525050565b611cfc81612480565b82525050565b611d0b81612492565b82525050565b611d1a816124a4565b82525050565b611d29816124b6565b82525050565b611d38816124b6565b82525050565b6000611d4b601b836123a5565b91507f536166654d6174683a206164646974696f6e206f766572666c6f7700000000006000830152602082019050919050565b6000611d8b6024836123a5565b91507f4e6f206d61726b6574496420666f756e6420666f722070726f7669646564207460008301527f6f6b656e000000000000000000000000000000000000000000000000000000006020830152604082019050919050565b6000611df1601e836123a5565b91507f4e6f7420456e6f7567682066756e647320746f207265706179206c6f616e00006000830152602082019050919050565b600061016083016000830151611e3d6000860182611cf3565b506020830151611e506020860182611f8a565b506040830151611e636040860182611ed7565b506060830151611e7660c0860182611f8a565b506080830151611e8960e0860182611f8a565b5060a0830151611e9d610100860182611b4d565b5060c0830151611eb1610120860182611f8a565b5060e0830151848203610140860152611eca8282611cab565b9150508091505092915050565b608082016000820151611eed6000850182611c9c565b506020820151611f006020850182611d02565b506040820151611f136040850182611d11565b506060820151611f266060850182611f8a565b50505050565b604082016000820151611f426000850182611d20565b506020820151611f556020850182611f8a565b50505050565b604082016000820151611f716000850182611b4d565b506020820151611f846020850182611f8a565b50505050565b611f9381612440565b82525050565b611fa281612440565b82525050565b6000602082019050611fbd6000830184611b3e565b92915050565b6000604082019050611fd86000830185611b5c565b611fe56020830184611f99565b9392505050565b600060408201905081810360008301526120068185611c3e565b9050818103602083015261201a8184611bc9565b90509392505050565b60006060820190506120386000830186611ce4565b6120456020830185611ce4565b6120526040830184611f99565b949350505050565b600060408201905061206f6000830185611ce4565b61207c6020830184611f99565b9392505050565b60006060820190506120986000830186611ce4565b6120a56020830185611f99565b6120b26040830184611f99565b949350505050565b60006060820190506120cf6000830186611d2f565b6120dc6020830185611f99565b6120e96040830184611f99565b949350505050565b6000602082019050818103600083015261210a81611d3e565b9050919050565b6000602082019050818103600083015261212a81611d7e565b9050919050565b6000602082019050818103600083015261214a81611de4565b9050919050565b60006040820190506121666000830184611f2c565b92915050565b60006020820190506121816000830184611f99565b92915050565b600060408201905061219c6000830185611f99565b81810360208301526121ae8184611b6b565b90509392505050565b60006080820190506121cc6000830187611f99565b81810360208301526121de8186611b6b565b90506121ed6040830185611b3e565b6121fa6060830184611f99565b95945050505050565b600060a0820190506122186000830188611f99565b6122256020830187611f99565b81810360408301526122378186611b6b565b90506122466060830185611b3e565b6122536080830184611f99565b9695505050505050565b6000604051905081810181811067ffffffffffffffff8211171561228057600080fd5b8060405250919050565b600067ffffffffffffffff8211156122a157600080fd5b602082029050602081019050919050565b600067ffffffffffffffff8211156122c957600080fd5b601f19601f8301169050602081019050919050565b6000819050602082019050919050565b6000819050602082019050919050565b6000819050602082019050919050565b600081519050919050565b600081519050919050565b600081519050919050565b600081519050919050565b6000602082019050919050565b6000602082019050919050565b6000602082019050919050565b600082825260208201905092915050565b600082825260208201905092915050565b600082825260208201905092915050565b600082825260208201905092915050565b600082825260208201905092915050565b60006123c182612420565b9050919050565b60008115159050919050565b60008190506123e28261253f565b919050565b60008190506123f58261254c565b919050565b600081905061240882612559565b919050565b600081905061241b82612566565b919050565b600073ffffffffffffffffffffffffffffffffffffffff82169050919050565b6000819050919050565b6000612455826124c8565b9050919050565b60006124678261246e565b9050919050565b600061247982612420565b9050919050565b600061248b826123d4565b9050919050565b600061249d826123e7565b9050919050565b60006124af826123fa565b9050919050565b60006124c18261240d565b9050919050565b60006124d3826124da565b9050919050565b60006124e582612420565b9050919050565b82818337600083830152505050565b60005b838110156125195780820151818401526020810190506124fe565b83811115612528576000848401525b50505050565b6000601f19601f8301169050919050565b6009811061254957fe5b50565b6002811061255657fe5b50565b6002811061256357fe5b50565b6002811061257057fe5b50565b61257c816123b6565b811461258757600080fd5b50565b612593816123c8565b811461259e57600080fd5b50565b600281106125ae57600080fd5b50565b6125ba81612440565b81146125c557600080fd5b5056fea365627a7a72315820bb60c32a3960770ce6f199e8d54751808c2a526a4ccc36bd4d42e8c766de97c46c6578706572696d656e74616cf564736f6c63430005100040",
  "source": "pragma solidity ^0.5.0;\npragma experimental ABIEncoderV2;\n\nimport \"@studydefi/money-legos/dydx/contracts/DydxFlashloanBase.sol\";\nimport \"@studydefi/money-legos/dydx/contracts/ICallee.sol\";\nimport { KyberNetworkProxy as IKyberNetworkProxy } from \"@studydefi/money-legos/kyber/contracts/KyberNetworkProxy.sol\";\nimport \"@openzeppelin/contracts/token/ERC20/IERC20.sol\";\nimport './interfaces/IUniswapV2Router02.sol';\nimport './interfaces/IWeth.sol';\ncontract FlashLoan is ICallee, DydxFlashloanBase {\n\n    enum Direction {\n        KyberToUniswap,\n        UniswapToKyber\n    }\n\n    struct ContractInfo {\n        Direction direction;\n        uint256 repayAmount;\n    }\n\n    event NewArbitrage (Direction direction, uint profit, uint date);\n\n    IKyberNetworkProxy kyber;\n    IUniswapV2Router02 uniswap;\n    IWeth weth;\n    IERC20 usdc;\n    address constant KYBER_ETH_ADDRESS = 0xEeeeeEeeeEeEeeEeEeEeeEEEeeeeEeeeeeeeEEeE;\n    address beneficiary;\n\n    constructor(\n        address _kyber,\n        address _uniswap,\n        address _weth,\n        address _usdc,\n        address _beneficiary\n    ) public {\n        kyber = IKyberNetworkProxy(_kyber);\n        uniswap = IUniswapV2Router02(_uniswap);\n        weth = IWeth(_weth);\n        usdc = IERC20(_usdc);\n        beneficiary = _beneficiary;\n    }\n\n    function callFunction(\n        address sender, \n        Account.Info memory account, \n        bytes memory data\n    ) public {\n        ContractInfo memory contractInfo = abi.decode(data, (ContractInfo));\n        uint256 balanceUsdc = usdc.balanceOf(address(this));\n        if (contractInfo.direction == Direction.KyberToUniswap) {\n\n            // Buy ETH from loanded USDC on Kyber\n            usdc.approve(address(kyber), balanceUsdc);\n            (uint expectedRate, ) = kyber.getExpectedRate(\n                usdc,\n                IERC20(KYBER_ETH_ADDRESS),\n                balanceUsdc\n            );\n            kyber.swapTokenToEther(usdc, balanceUsdc, expectedRate);\n\n\n            // Sell ETH on Uniswap\n            address[] memory path = new address[](2);\n            path[0] = address(weth); // source\n            path[1] = address(usdc); // dest\n            uint[] memory minOuts = uniswap.getAmountsOut(address(this).balance, path);\n            uniswap.swapExactETHForTokens.value(address(this).balance)(minOuts[1], path, address(this), now);\n        } else if (contractInfo.direction == Direction.UniswapToKyber) {\n            // Buy ETH from loaned USDC on Uniswap\n            usdc.approve(address(uniswap), balanceUsdc);\n            address[] memory path = new address[](2);\n            path[0] = address(usdc);\n            path[1] = address(weth);\n            uint[] memory minOuts = uniswap.getAmountsOut(balanceUsdc, path);\n            uniswap.swapExactTokensForETH(balanceUsdc, minOuts[1], path, address(this), now);\n\n            // Sell ETH on kyber\n            (uint expectedRate, ) = kyber.getExpectedRate(\n                IERC20(KYBER_ETH_ADDRESS),\n                usdc,\n                address(this).balance\n            );\n            kyber.swapEtherToToken.value(address(this).balance)(usdc, expectedRate);\n        }\n\n        require(\n            usdc.balanceOf(address(this)) >= contractInfo.repayAmount,\n            \"Not Enough funds to repay loan\"\n        );\n\n        uint profit = usdc.balanceOf(address(this)) - contractInfo.repayAmount;\n        usdc.transfer(beneficiary, profit);\n\n        emit NewArbitrage(contractInfo.direction, profit, now);\n    }\n\n    function initiateFlashloan(\n        address _solo,\n        address _token,\n        uint256 _amount,\n        Direction direction\n    ) external {\n        ISoloMargin solo = ISoloMargin(_solo);\n        uint256 marketId = _getMarketIdFromTokenAddress(_solo, _token);\n        uint256 repayAmount = _getRepaymentAmountInternal(_amount);\n        IERC20(_token).approve(_solo, repayAmount);\n\n        // 1. Withdraw $\n        // 2. Call callFunction(...)\n        // 3. Deposit back $\n        Actions.ActionArgs[] memory operations = new Actions.ActionArgs[](3);\n        operations[0] = _getWithdrawAction(marketId, _amount);\n        operations[1] = _getCallAction(\n            abi.encode(ContractInfo(\n                {\n                    direction: direction,\n                    repayAmount: repayAmount\n                }\n            ))\n        );\n        operations[2] = _getDepositAction(marketId, repayAmount);\n\n        Account.Info[] memory accountInfos = new Account.Info[](1);\n        accountInfos[0] = _getAccountInfo();\n\n        solo.operate(accountInfos, operations);\n    }\n\n    // fallback method\n    function() external payable {}\n    \n}",
  "sourcePath": "/home/harsh/git/learning/flashloans/fl/contracts/FlashLoan.sol",
  "compiler": {
    "name": "solc",
    "version": "0.5.16+commit.9c3226ce.Emscripten.clang"
  },
  "schemaVersion": "3.3.4",
  "updatedAt": "2021-03-15T22:21:00.426Z",
  "networkType": "ethereum",
  "devdoc": {
    "methods": {}
  },
  "userdoc": {
    "methods": {}
  }
}